{
  "_format": "hh-sol-artifact-1",
  "contractName": "ProxyLock",
  "sourceName": "contracts/ProxyLock.sol",
  "abi": [
    {
      "inputs": [
        {
          "internalType": "address",
          "name": "implementationAddress",
          "type": "address"
        },
        {
          "internalType": "uint256",
          "name": "_unlockTime",
          "type": "uint256"
        }
      ],
      "stateMutability": "payable",
      "type": "constructor"
    },
    {
      "anonymous": false,
      "inputs": [
        {
          "indexed": false,
          "internalType": "uint256",
          "name": "amount",
          "type": "uint256"
        },
        {
          "indexed": false,
          "internalType": "uint256",
          "name": "when",
          "type": "uint256"
        }
      ],
      "name": "Withdrawal",
      "type": "event"
    },
    {
      "stateMutability": "payable",
      "type": "fallback"
    },
    {
      "inputs": [],
      "name": "owner",
      "outputs": [
        {
          "internalType": "address payable",
          "name": "",
          "type": "address"
        }
      ],
      "stateMutability": "view",
      "type": "function"
    },
    {
      "inputs": [],
      "name": "unlockTime",
      "outputs": [
        {
          "internalType": "uint256",
          "name": "",
          "type": "uint256"
        }
      ],
      "stateMutability": "view",
      "type": "function"
    },
    {
      "inputs": [
        {
          "internalType": "address",
          "name": "newImplementation",
          "type": "address"
        }
      ],
      "name": "upgrade",
      "outputs": [],
      "stateMutability": "nonpayable",
      "type": "function"
    },
    {
      "stateMutability": "payable",
      "type": "receive"
    }
  ],
  "bytecode": "0x6080604052604051610914380380610914833981810160405281019061002591906101d2565b816000806101000a81548173ffffffffffffffffffffffffffffffffffffffff021916908373ffffffffffffffffffffffffffffffffffffffff1602179055508042106100a7576040517f08c379a000000000000000000000000000000000000000000000000000000000815260040161009e90610295565b60405180910390fd5b600034116100ea576040517f08c379a00000000000000000000000000000000000000000000000000000000081526004016100e190610301565b60405180910390fd5b8060018190555033600260006101000a81548173ffffffffffffffffffffffffffffffffffffffff021916908373ffffffffffffffffffffffffffffffffffffffff1602179055505050610321565b600080fd5b600073ffffffffffffffffffffffffffffffffffffffff82169050919050565b60006101698261013e565b9050919050565b6101798161015e565b811461018457600080fd5b50565b60008151905061019681610170565b92915050565b6000819050919050565b6101af8161019c565b81146101ba57600080fd5b50565b6000815190506101cc816101a6565b92915050565b600080604083850312156101e9576101e8610139565b5b60006101f785828601610187565b9250506020610208858286016101bd565b9150509250929050565b600082825260208201905092915050565b7f556e6c6f636b2074696d652073686f756c6420626520696e207468652066757460008201527f7572650000000000000000000000000000000000000000000000000000000000602082015250565b600061027f602383610212565b915061028a82610223565b604082019050919050565b600060208201905081810360008301526102ae81610272565b9050919050565b7f4e6f2066756e64732070726f7669646564000000000000000000000000000000600082015250565b60006102eb601183610212565b91506102f6826102b5565b602082019050919050565b6000602082019050818103600083015261031a816102de565b9050919050565b6105e4806103306000396000f3fe6080604052600436106100385760003560e01c80630900f01014610190578063251c1aa3146101b95780638da5cb5b146101e45761003f565b3661003f57005b60008060009054906101000a900473ffffffffffffffffffffffffffffffffffffffff1673ffffffffffffffffffffffffffffffffffffffff166040516024016040516020818303038152906040527f3ccfd60b000000000000000000000000000000000000000000000000000000007bffffffffffffffffffffffffffffffffffffffffffffffffffffffff19166020820180517bffffffffffffffffffffffffffffffffffffffffffffffffffffffff83818316178352505050506040516101099190610388565b600060405180830381855af49150503d8060008114610144576040519150601f19603f3d011682016040523d82523d6000602084013e610149565b606091505b505090508061018d576040517f08c379a000000000000000000000000000000000000000000000000000000000815260040161018490610422565b60405180910390fd5b50005b34801561019c57600080fd5b506101b760048036038101906101b291906104a5565b61020f565b005b3480156101c557600080fd5b506101ce6102e2565b6040516101db91906104eb565b60405180910390f35b3480156101f057600080fd5b506101f96102e8565b6040516102069190610527565b60405180910390f35b600260009054906101000a900473ffffffffffffffffffffffffffffffffffffffff1673ffffffffffffffffffffffffffffffffffffffff163373ffffffffffffffffffffffffffffffffffffffff161461029f576040517f08c379a00000000000000000000000000000000000000000000000000000000081526004016102969061058e565b60405180910390fd5b806000806101000a81548173ffffffffffffffffffffffffffffffffffffffff021916908373ffffffffffffffffffffffffffffffffffffffff16021790555050565b60015481565b600260009054906101000a900473ffffffffffffffffffffffffffffffffffffffff1681565b600081519050919050565b600081905092915050565b60005b83811015610342578082015181840152602081019050610327565b83811115610351576000848401525b50505050565b60006103628261030e565b61036c8185610319565b935061037c818560208601610324565b80840191505092915050565b60006103948284610357565b915081905092915050565b600082825260208201905092915050565b7f536f6d657468696e672077656e742077726f6e6720647572696e672064656c6560008201527f676174696f6e2063616c6c000000000000000000000000000000000000000000602082015250565b600061040c602b8361039f565b9150610417826103b0565b604082019050919050565b6000602082019050818103600083015261043b816103ff565b9050919050565b600080fd5b600073ffffffffffffffffffffffffffffffffffffffff82169050919050565b600061047282610447565b9050919050565b61048281610467565b811461048d57600080fd5b50565b60008135905061049f81610479565b92915050565b6000602082840312156104bb576104ba610442565b5b60006104c984828501610490565b91505092915050565b6000819050919050565b6104e5816104d2565b82525050565b600060208201905061050060008301846104dc565b92915050565b600061051182610447565b9050919050565b61052181610506565b82525050565b600060208201905061053c6000830184610518565b92915050565b7f4e6f7420416c6c6f776564000000000000000000000000000000000000000000600082015250565b6000610578600b8361039f565b915061058382610542565b602082019050919050565b600060208201905081810360008301526105a78161056b565b905091905056fea264697066735822122036df42429d8e406bbaa784f1a316172e1a639e901938c202849ca234f11091a464736f6c63430008090033",
  "linkReferences": {},
  "deployedLinkReferences": {}
}